:1000000041C075C0AAC559C058C057C076C555C0B3
:1000100054C053C052C051C050C04FC04EC04DC05C
:100020004CC04BC04AC009021200010100801909EE
:10003000040000000000000012011001FF00000891
:10004000C016DC0500010102000116035500530033
:1000500042006500780061006D0070006C00650072
:10006000200363006F006400650061006E0064009F
:100070006C006900660065002E0063006F006D0073
:100080000403090411241FBECFE5D4E0DEBFCDBFB9
:1000900010E0A0E6B0E0E8EBF0E102C005900D92C0
:1000A000A236B107D9F722E0A2E6B0E001C01D9266
:1000B000A83AB207E1F78FD6FDC7A2CFA82FB92F74
:1000C00080E090E041E050EA609530E009C02D9179
:1000D00082279795879510F084279527305EC8F37F
:1000E0006F5FA8F30895EADF8D939D930895CF93F2
:1000F000CFB7CF93C395849BE9F7849B09C0849BBA
:1001000007C0849B05C0849B03C0849B01C0A1C021
:10011000DF93C0918B02DD27CE56DD4F849B02C05A
:10012000DF91EBCF2F930F931F9300B32FEF04FBBF
:1001300020F94F933F9310B34FEF012704FB21F9B0
:100140003BE031C04E7F012F10B3216028C0102F3B
:100150004D7F2260000000B329C04B7F2460012F37
:10016000000010B32BC010B3477F28602AC04F7E19
:1001700000B320612CC04F7D10B320622FC04F7B95
:1001800000B3206432C0422700B349934FEF000010
:10019000102714FB20F910B31471C9F1297F91F2D3
:1001A000012704FB21F900B3237F89F2315058F174
:1001B000102714FB22F910B3277E79F2012704FBE4
:1001C00023F92F7C81F200B3102714FB24F92F7937
:1001D00071F200C010B3012704FB25F92F7359F207
:1001E00000C000B3102714FB26F9223040F200C0F3
:1001F00010B3012704FB27F9243028F64F77206835
:1002000010B30000F9CF10E41ABF002717C03B500D
:100210003195C31BD04010E41ABF0881033CE9F0BC
:100220000B34D9F0209189021981110F1213EDCFEF
:10023000093641F10D3211F0013E39F70093900279
:100240003F914F911F910F912F91DF91CAB7C6FD3A
:1002500051CFCF91CFBFCF911895209190022223FB
:1002600079F310918E02112311F5343012F130938D
:100270008E0220938A0210918B023BE0311B309357
:100280008B0217C000918E0201308CF40AE5309188
:10029000610034FD10C000936100CEE7D2E00FC0D2
:1002A0002795A8F45150A9F4220F0000F9CF4AE590
:1002B00003C042ED01C0432FC4E1D0E032E011B3EE
:1002C0001461949A11BB02B320E414E15F930127F7
:1002D00056E002BB279520F4515021F4220FF9CFAC
:1002E000012756E000003B5A02BBD0F2279528F4C4
:1002F000515029F4220F0000F9CF012756E027952D
:1003000002BB20F4515021F4220FF9CF012756E00F
:100310002991332302BB21F60B7E10918F02110F1E
:10032000C651D04002BB11F01093890210E41ABFED
:10033000006111B31B7E402F4B7E5F9100C000C057
:1003400002BB11BB42BB7CCF80917C0090917D00B1
:10035000892B21F188E290E09BBD8ABD84E190E089
:1003600099BD88BD83E28FBD8EB58A618EBD89B788
:10037000806189BF109279001092780010927D0000
:1003800010927C0010926E0010926F00109270001C
:100390001092710010926B0010926A0080916A00B6
:1003A00090916B009C012170332780FF05C02130A4
:1003B000310509F44FC09AC040916E0050916F0012
:1003C0006091700070917100E0916A00F0916B0093
:1003D000EE0FFF1FE058FF4F80819181A0E0B0E059
:1003E000481759076A077B0790F0EAE6F0E080813A
:1003F00091810196918380838FB58F7D8FBD1092FF
:100400006E0010926F001092700010927100209197
:100410006A0030916B0080916C0090916D008217A2
:10042000930708F063C010926B0010926A0010925C
:100430006E0010926F001092700010927100E6E74B
:10044000F2E0808191810196918380838FB58062F3
:100450008FBD4CC040916E0050916F006091700054
:1004600070917100E0916A00F0916B00EE0FFF1F38
:10047000E058FF4F80819181A0E0B0E04817590714
:100480006A077B0790F0EAE6F0E0808191810196AF
:10049000918380838FB580628FBD10926E00109221
:1004A0006F00109270001092710020916A003091DC
:1004B0006B0080916C0090916D0082179307B0F4EF
:1004C00010926B0010926A0010926E0010926F00F2
:1004D0001092700010927100E6E7F2E08081918145
:1004E0000196918380838FB580628FBD8091760263
:1004F00090917702892BB9F01FBC1EBC89B78F7E03
:1005000089BF81E090E09093790080937800909388
:100510007D0080937C0010926D0010926C00109210
:1005200077021092760280917C0090917D00089570
:100530000F931F93CF93DF9380917A0090917B006C
:10054000892BD9F181E090E090937F0080937E0029
:1005500010927B0010927A00109279021092780229
:1005600010926D0010926C0083E090E09093670011
:1005700080936600109277001092760010926900C6
:100580001092680010926E0010926F00109270002E
:1005900010927100F8948FBD8EB58A618EBD88E28D
:1005A00090E09BBD8ABD8BB780688BBF85B78460A8
:1005B00085BF89B7806189BF789480917E009091D2
:1005C0007F00029709F015C2809166009091670044
:1005D00084309105B1F130F4009709F4CCC1039750
:1005E00059F007C28630910509F4D9C008F480C0DB
:1005F000079709F42BC1FDC110926D0010926C0099
:1006000010926B0010926A001092720010927300A8
:100610001092740010927500109269001092680098
:1006200084E090E0909367008093660010927902D6
:100630001092780281E090E090937F0080937E009A
:10064000D8C18091720090917300A0917400B09114
:1006500075000897A105B105E0F1809172009091B5
:100660007300A0917400B09175008C3B9140A1057E
:10067000B10578F5EAE6F0E040815181C2E7D0E0CB
:10068000088119812A813B81440F551F40585F4FD3
:10069000DA0111961C930E938081918101969183CA
:1006A0008083ECE6F0E080819181019691838083E4
:1006B000188219821A821B8285E090E0909367006D
:1006C0008093660081E090E090937F0080937E00AD
:1006D00090C1109267001092660081E090E09093C4
:1006E0007F0080937E00109277001092760081C187
:1006F0008091720090917300A0917400B091750088
:100700000497A105B105E0F180917200909173000A
:10071000A0917400B0917500893C9540A105B10588
:1007200078F5EAE6F0E040815181C2E7D0E0088147
:1007300019812A813B81440F551F40585F4FDA01D0
:1007400011961C930E9380819181019691838083F1
:10075000ECE6F0E08081918101969183808318829C
:1007600019821A821B8286E090E090936700809342
:10077000660081E090E090937F0080937E0039C115
:10078000109267001092660081E090E090937F00E5
:1007900080937E0010927700109276002AC180919B
:1007A000720090917300A0917400B091750004974D
:1007B000A105B105E0F18091720090917300A091C4
:1007C0007400B09175008C3B9140A105B10578F59E
:1007D000EAE6F0E040815181C2E7D0E0088119816A
:1007E0002A813B81440F551F40585F4FDA01119613
:1007F0001C930E9380819181019691838083ECE616
:10080000F0E0808191810196918380831882198222
:100810001A821B8287E090E09093670080936600C5
:1008200081E090E090937F0080937E00E2C0109280
:1008300067001092660081E090E090937F008093C3
:100840007E001092770010927600D3C080917200E3
:1008500090917300A0917400B09175000497A10568
:10086000B10508F479C08091720090917300A09155
:100870007400B091750081309D40A105B10508F06C
:100880006BC0EAE6F0E040815181C2E7D0E0088128
:1008900019812A813B81440F551F40585F4FDA016F
:1008A00011961C930E938081918101969183808390
:1008B000ECE6F0E08081918101969183808318823B
:1008C00019821A821B82E8E6F0E08081918101960C
:1008D00091838083808191818436910568F486E0DC
:1008E00090E0909367008093660081E090E09093A1
:1008F0007F0080937E007DC01FBC1EBC89B78F7EA9
:1009000089BF1092720010927300109274001092BE
:10091000750010926B0010926A0010926E00109297
:100920006F00109270001092710081E090E090933F
:100930007B0080937A00ECE6F0E0208131812F5F2C
:100940003F4F3183208390937700809376001092FD
:100950007902109278024DC01092670010926600E2
:1009600081E090E090937F0080937E00109277006A
:10097000109276003EC080E090E0FC01EE0FFF1F79
:10098000E058FF4F1182108201968A3F9105A9F726
:1009900084E090E090936D0080936C0081E090E0A3
:1009A00090937B0280937A021092790210927802DF
:1009B0001FBC1EBC29B72F7E29BF10927700109252
:1009C00076001092720010927300109274001092D0
:1009D000750010926B0010926A0010926E001092D7
:1009E0006F00109270001092710090937B008093C2
:1009F0007A008091720090917300A0917400B09180
:100A0000750086309D40A105B10568F180916800B0
:100A100090916900059738F11FBC1EBC89B78F7E85
:100A200089BF10927200109273001092740010929D
:100A3000750010926B0010926A0010926E00109276
:100A40006F00109270001092710081E090E090931E
:100A50007B0080937A0090937700809376001092C9
:100A600079021092780280916E0090916F00A091AF
:100A70007000B09171008132914AA740B105A0F198
:100A800080E090E0FC01EE0FFF1FE058FF4F118265
:100A9000108201968A3F9105A9F71092790210926F
:100AA00078021FBC1EBC89B78F7E89BF1092770069
:100AB00010927600109272001092730010927400DF
:100AC0001092750010926B0010926A0010926E00E6
:100AD00010926F00109270001092710081E090E00F
:100AE00090937B0080937A0080917A0090917B00B4
:100AF000DF91CF911F910F9108951F920F920FB622
:100B00000F9211248F939F93AF93BF93EF93FF9313
:100B1000EEE6F0E080819181A281B3810196A11D72
:100B2000B11D80839183A283B383E2E7F0E08081EB
:100B30009181A281B3810196A11DB11D8083918312
:100B4000A283B383FF91EF91BF91AF919F918F915A
:100B50000F900FBE0F901F9018951F920F920FB617
:100B60000F9211248F939F9382E090E090937F00E7
:100B700080937E009F918F910F900FBE0F901F90DA
:100B80001895FC012081213A59F48181811104C01A
:100B900010927C028FEF089580937C028FEF08956E
:100BA000213251F5FC01918191110AC010926D0022
:100BB00010926C00109263001092620080E0089521
:100BC000913029F481E080937D0280E00895923095
:100BD00069F4809162009091630090936D0080931E
:100BE0006C0081E08093650080E0089581E093309F
:100BF00009F080E08195089580E00895FC01A091BE
:100C00007C02A11107C080916C0090916D008083DF
:100C100081E00895B0E0AA0FBB1FA258BF4F8D918D
:100C20009C91908380917C0290E0DC01AA0FBB1F15
:100C3000A258BF4F2D913C912183DC01AA0FBB1F0D
:100C4000A058BF4F2D913C91119732832D913C912B
:100C50002383DC01AA0FBB1FAE57BF4F2D913C91E0
:100C6000119734832D913C912583DC01AA0FBB1F82
:100C7000AC57BF4F8D919C91119796838D919C910C
:100C8000878388E00895CF93DF934091620050916D
:100C90006300FC01319620E030E0D901A40FB51FBC
:100CA000EF012197888190E0982F88276081862B1B
:100CB000AA0FBB1FA058BF4F11969C938E932F5F16
:100CC0003F4F32962430310541F780916200909178
:100CD00063000496909363008093620081E0DF914B
:100CE000CF910895C09A28EE33E05AEF40E008C053
:100CF00001970097E9F7215031092115310519F0C5
:100D0000852F942FF5CFC09828EE33E054E640E0CD
:100D100008C001970097E9F72150310921153105E5
:100D200019F0852F942FF5CFC09A28EE33E05AEFB3
:100D300040E008C001970097E9F7215031092115DB
:100D4000310519F0852F942FF5CFC09828EE33E0A8
:100D500054E640E008C001970097E9F721503109B7
:100D60002115310519F0852F942FF5CFC09A28EE63
:100D700033E05AEF40E008C001970097E9F72150AF
:100D800031092115310519F0852F942FF5CFC09821
:100D900028EE33E054E640E008C001970097E9F7F9
:100DA000215031092115310519F0852F942FF5CFE8
:100DB000C09A28EE33E05AEF40E008C00197009750
:100DC000E9F7215031092115310519F0852F942FAC
:100DD000F5CFC098089581E090E090937B008093D8
:100DE0007A00109265008FE087BB84E190E099BDA6
:100DF00088BD88E290E09BBD8ABD55D18C9A8AEF70
:100E0000EFE6F7E13197F1F700C000008150C1F73C
:100E10008C98789467DF0CE710E0C1E0D0E018D040
:100E200080917D02813039F4C09A82DB892BE9F30D
:100E3000C09810927D0280916500813081F7F801A1
:100E4000D183C08381DA892BE9F310926500E7CF63
:100E5000CF93DF9360918E0263500AF4AEC020916D
:100E60008B028CE090E0821B9109EC01CE56DD4FA5
:100E700080918A028D3209F08FC0683009F09BC0E2
:100E800083EC80937E028AE5809361001092640077
:100E90008881807619F0CE0174DE6AC08A81109252
:100EA00087029981911106C01092880227E832E0EA
:100EB00082E05AC0953031F480938F0227E832E007
:100EC00080E052C09630E1F59B81913041F488E397
:100ED00090E090938D0280938C0282E12DC092303D
:100EE00041F486E290E090938D0280938C0282E13F
:100EF00023C09330F1F4811108C080E890E0909312
:100F00008D0280938C0284E017C0813041F480E62A
:100F100090E090938D0280938C0280E20DC082302D
:100F200051F48AE490E090938D0280938C0286E1E4
:100F300003C080E001C080E090E49093640018C09A
:100F4000983079F0993031F48093910227E832E0BB
:100F500080E00AC081E09A3009F080E027E832E0C2
:100F600003C021E932E081E030938D0220938C02AE
:100F70008F3F41F4988199230CF48E8190E89093EF
:100F8000640007C09F81911104C09E81981708F4E6
:100F9000892F809360000FC08091640088235CF4E7
:100FA000CE0171DE8F3F21F48EE18093610003C09A
:100FB00081111092600010928E028091610084FF76
:100FC0005BC0809160008F3F09F456C0C82F893004
:100FD00008F0C8E08C1B80936000EEE7F2E090819F
:100FE00088E889278083CC2309F454C08091640069
:100FF000882334F46C2F8FE792E000DEC82F29C0DD
:1010000020918C0230918D0286FF10C0AFE7B2E0D4
:10101000F9018C2F94919D9331968150D9F78FEFE0
:101020008C0F90E00196280F391F0FC0D901EFE710
:10103000F2E08C2F9D9191938150E1F74FEF4C0F8F
:1010400050E04F5F5F4F240F351F30938D02209388
:101050008C02C93058F46C2F8FE792E044D8CC5FF3
:10106000CC3040F48FEF8093600004C08FEF80930A
:101070006000CEE1C093610080B3847189F483E1A4
:1010800090B3947169F48150D9F710928F02109245
:10109000890206C06C2F8FE792E025D8CC5FE2CFA3
:1010A000DF91CF91089585B7826085BF8BB780644B
:0810B0008BBF0895F894FFCFF7
:0210B800FF5ADD
:00000001FF
