S01E0000426C7565746F6F746852656D6F7465436F6E74726F6C2E7372656303
S113000012C02CC083C42AC029C028C04FC426C033
S113001025C059C623C069C921C020C01FC01EC045
S11300201DC01CC01BC011241FBECFE5D4E0DEBF21
S1130030CDBF10E0A0E6B0E0E0EEF3E102C0059031
S11300400D92AC36B107D9F723E0ACE6B0E001C0BD
S11300501D92AD39B207E1F7F2D6C0C9D1CF809174
S11300608E0090918F00892B29F11AB888E290E0D4
S11300709BBD8ABD84E190E099BD88BD83E28FBDBC
S11300808EB58A618EBD89B7806189BF10928B005D
S113009010928A0010928F0010928E0010928000AD
S11300A010928100109282001092830010927D00C1
S11300B010927C0080917C0090917D009C012170C5
S11300C0332780FF05C02130310509F472C0E0C038
S11300D0E0917C00F0917D00EE0FFF1FEE56FF4F84
S11300E080819181813E9E42B0F010927D001092F9
S11300F07C00109280001092810010928200109275
S11301008300E4E9F1E08081918101969183808309
S11301108FB580628FBD40918000509181006091C5
S1130120820070918300E0917C00F0917D00EE0FDD
S1130130FF1FEE56FF4F80819181A0E0B0E0481789
S113014059076A077B0790F0ECE7F0E08081918122
S11301500196918380838FB58F7D8FBD109280002F
S113016010928100109282001092830020917C00F2
S113017030917D0080917E0090917F0082179307DB
S113018008F086C010927D0010927C0010928000CE
S1130190109281001092820010928300E4E9F1E051
S11301A0808191810196918380838FB580628FBD18
S11301B06FC0E0917C00F0917D00EE0FFF1FEE56C2
S11301C0FF4F80819181813E9E42B0F010927D006C
S11301D010927C0010928000109281001092820094
S11301E010928300E4E9F1E080819181019691838A
S11301F080838FB580628FBD4091800050918100D3
S11302006091820070918300E0917C00F0917D0008
S1130210EE0FFF1FEE56FF4F80819181A0E0B0E00A
S1130220481759076A077B0790F0ECE7F0E08081F4
S113023091810196918380838FB580628FBD1092E6
S1130240800010928100109282001092830020910D
S11302507C0030917D0080917E0090917F00821718
S11302609307B0F410927D0010927C0010928000ED
S1130270109281001092820010928300E4E9F1E070
S1130280808191810196918380838FB580628FBD37
S11302908091940190919501892BC9F01FBC1EBCDB
S11302A089B78F7E89BF81E090E090938B00809323
S11302B08A0090938F0080938E0010927F0010929A
S11302C07E00109295011092940188E98AB9809178
S11302D08E0090918F0008950F931F93CF93DF9317
S11302E080918C0090918D00892B09F43FC081E0AE
S11302F090E0909391008093900010928D00109262
S11303008C00109297011092960110927F00109227
S11303107E0083E090E090937900809378001092BF
S113032089001092880010927B0010927A0010923B
S1130330800010928100109282001092830010922B
S1130340990110929801F8948FBD8EB58A618EBD83
S113035088E290E09BBD8ABD8BB780688BBF85B770
S1130360846085BF89B7806189BF7894809190004B
S113037090919100029709F015C2809178009091B4
S1130380790084309105B1F130F4009709F4CCC1BF
S1130390039759F007C28630910509F4D9C008F4CF
S11303A080C0079709F42BC1FDC110927F00109201
S11303B07E0010927D0010927C00109284001092B6
S11303C08500109286001092870010927B00109294
S11303D07A0084E090E09093790080937800109202
S11303E097011092960181E090E0909391008093A0
S11303F09000D8C18091840090918500A0918600DE
S1130400B09187000897A105B105E0F180918400BF
S113041090918500A0918600B09187008C3B91401B
S1130420A105B10578F5ECE7F0E040815181C4E81D
S1130430D0E0088119812A813B81440F551F4E5613
S11304405F4FDA0111961C930E938081918101967E
S113045091838083EEE7F0E080819181019691831E
S11304608083188219821A821B8285E090E090931F
S113047079008093780081E090E0909391008093DC
S1130480900090C1109279001092780081E090E081
S113049090939100809390001092890010928800AC
S11304A081C18091840090918500A0918600B091D3
S11304B087000497A105B105E0F180918400909133
S11304C08500A0918600B0918700893C9540A105E4
S11304D0B10578F5ECE7F0E040815181C4E8D0E063
S11304E0088119812A813B81440F551F4E565F4F65
S11304F0DA0111961C930E93808191810196918368
S11305008083EEE7F0E0808191810196918380837E
S1130510188219821A821B8286E090E090937900F7
S11305208093780081E090E0909391008093900014
S113053039C1109279001092780081E090E0909394
S113054091008093900010928900109288002AC133
S11305508091840090918500A0918600B0918700DD
S11305600497A105B105E0F1809184009091850084
S1130570A0918600B09187008C3B9140A105B10504
S113058078F5ECE7F0E040815181C4E8D0E00881DF
S113059019812A813B81440F551F4E565F4FDA0162
S11305A011961C930E93808191810196918380838F
S11305B0EEE7F0E080819181019691838083188237
S11305C019821A821B8287E090E0909379008093CD
S11305D0780081E090E09093910080939000E2C0D5
S11305E0109279001092780081E090E0909391004D
S11305F0809390001092890010928800D3C080915B
S1130600840090918500A0918600B09187000497A2
S1130610A105B10508F479C080918400909185000A
S1130620A0918600B091870081309D40A105B1055D
S113063008F06BC0ECE7F0E040815181C4E8D0E001
S1130640088119812A813B81440F551F4E565F4F03
S1130650DA0111961C930E93808191810196918306
S11306608083EEE7F0E0808191810196918380831D
S1130670188219821A821B82EAE7F0E08081918154
S1130680019691838083808191818436910568F4F9
S113069086E090E0909379008093780081E090E088
S11306A090939100809390007DC01FBC1EBC89B7BD
S11306B08F7E89BF1092840010928500109286006C
S11306C01092870010927D0010927C00109280009E
S11306D010928100109282001092830081E090E0D9
S11306E090938D0080938C00EEE7F0E020813181BF
S11306F02F5F3F4F3183208390938900809388003C
S113070010929701109296014DC0109279001092A8
S1130710780081E090E09093910080939000109293
S11307208900109288003EC080E090E0FC01EE0F4A
S1130730FF1FEE56FF4F11821082019680389105FB
S1130740A9F784E090E090937F0080937E0081E09D
S113075090E09093990180939801109297011092E0
S113076096011FBC1EBC29B72F7E29BF1092890099
S113077010928800109284001092850010928600D6
S11307801092870010927D0010927C0010928000DD
S113079010928100109282001092830090938D0039
S11307A080938C008091840090918500A0918600B4
S11307B0B091870086309D40A105B10568F1809114
S11307C07A0090917B00059738F11FBC1EBC89B755
S11307D08F7E89BF1092840010928500109286004B
S11307E01092870010927D0010927C00109280007D
S11307F010928100109282001092830081E090E0B8
S113080090938D0080938C0090938900809388004E
S1130810109297011092960180918000909181002E
S1130820A0918200B09183008132914AA740B10522
S1130830A0F180E090E0FC01EE0FFF1FEE56FF4FA9
S113084011821082019680389105A9F710929701C0
S1130850109296011FBC1EBC89B78F7E89BF10926F
S113086089001092880010928400109285001092E2
S113087086001092870010927D0010927C001092E6
S1130880800010928100109282001092830081E017
S113089090E090938D0080938C0080918C009091D7
S11308A08D00DF91CF911F910F9108951F920F92A8
S11308B00FB60F9211248F939F93AF93BF93EF932F
S11308C0FF93E0E8F0E080819181A281B3810196F9
S11308D0A11DB11D80839183A283B383E4E8F0E07A
S11308E080819181A281B3810196A11DB11D808374
S11308F09183A283B383FF91EF91BF91AF919F91B5
S11309008F910F900FBE0F901F9018951F920F920A
S11309100FB60F9211248F939F9382E090E09093EF
S11309209100809390009F918F910F900FBE0F9034
S11309301F9018958CE089B910BC88E98AB908958C
S11309405D9BFECF8CB9089581E2FADF82E0F8DF87
S113095086E6F6DF86E6F4DFC09A20E030E050E079
S113096040E00AC0019682339105E1F72F5F3F4FC3
S1130970203787E1380719F0852F942FF3CFC098DB
S113098020E030E050E040E00AC001968436910552
S1130990E1F72F5F3F4F203787E1380719F0852FA4
S11309A0942FF3CFC09A20E030E050E040E00AC03A
S11309B0019682339105E1F72F5F3F4F203787E19E
S11309C0380719F0852F942FF3CFC09820E030E03A
S11309D050E040E00AC0019684369105E1F72F5FAC
S11309E03F4F203787E1380719F0852F942FF3CF35
S11309F0C09A20E030E050E040E00AC00196823323
S1130A009105E1F72F5F3F4F203787E1380719F051
S1130A10852F942FF3CFC09820E030E050E040E0E1
S1130A200AC0019684369105E1F72F5F3F4F2037C6
S1130A3087E1380719F0852F942FF3CFC09A20E06F
S1130A4030E050E040E00AC0019682339105E1F7BE
S1130A502F5F3F4F203787E1380719F0852F942FF8
S1130A60F3CFC0980895C09A20E030E050E040E011
S1130A700AC0019682339105E1F72F5F3F4F20377B
S1130A8087E1380719F0852F942FF3CFC098809110
S1130A906B00811112C0089580916B002F5F3F4F4E
S1130AA081110FC0089540916B00442389F0019691
S1130AB0873E43E09407B9F70BC020E030E060E0E4
S1130AC050E080916B00882319F0862F952FEBCF8F
S1130AD02F3687E1380701F70895F89413BE1FBC39
S1130AE08EB58EBD8BB78BBF89B789BF1AB885B752
S1130AF08F78806285BFC19885B7806885BF7894F8
S1130B00889508952F923F924F925F926F927F92B1
S1130B108F929F92AF92BF92CF92DF92EF92FF9209
S1130B200F931F93CF93DF9380916F009091700088
S1130B30813A25E0920720F4009709F4A3C002C08B
S1130B4081E090E001969093700080936F009AC0CA
S1130B5010926B0080919A0190919B0186369105C9
S1130B60C1F080E090E00196FC01EE0FFF1FE65615
S1130B70FE4F20813181DC01AA0FBB1FAE56BF4F4F
S1130B8011963C932E93208131812636310559F7F5
S1130B9002C080E090E090937F0080937E001092EA
S1130BA06D0010926C0081E080937700809160006A
S1130BB0811109C08CED95E09093640080936300EB
S1130BC03324339402C03324339480906F00909084
S1130BD070000F2EF5E6EF2EF0E0FF2EF02D0F2E15
S1130BE0F1E6AF2EF0E0BF2EF02D0F2EF0E0CF2E69
S1130BF0F0E0DF2EF02D0F2EF9E66F2EF0E07F2EC1
S1130C00F02D212C2701F701808191818815990508
S1130C1061F5339410926B00E60100E0122D0BC0D5
S1130C200F5F1F4FCE01B5D3F801EE0FFF1FEE5635
S1130C30FF4F91838083CE01ACD3229686369105F3
S1130C4079F7EEE7F0E01183008310926C002092B4
S1130C506D00F1E0F0937700F5018081811105C00A
S1130C608CED95E0F2019183808392E0E90EF11C12
S1130C70EFEFAE1ABE0AD394E614F70419F63092D5
S1130C8075000EC0209163003091640080916F0064
S1130C90909170002817390709F45ACF312C95CF59
S1130CA0DF91CF911F910F91FF90EF90DF90CF9044
S1130CB0BF90AF909F908F907F906F905F904F9078
S1130CC03F902F9008951F920F920FB60F92112408
S1130CD02F933F934F935F936F937F938F939F9340
S1130CE0AF93BF93EF93FF9380917300909174003F
S1130CF00196909374008093730085369A40C8F0EF
S1130D0081E080936B008091710090917200019654
S1130D10909372008093710010927400109273008B
S1130D202091690030916A008217930708F0D5DE9C
S1130D30E9DEFF91EF91BF91AF919F918F917F91E8
S1130D406F915F914F913F912F910F900FBE0F9034
S1130D501F9018950F931F93CF93DF938091750085
S1130D60823089F5C0E0D0E000E010E00BC00F5FF6
S1130D701F4FCE010ED3F801EE0FFF1FEE56FF4FAB
S1130D8091838083CE0105D322968636910579F727
S1130D9010937F0000937E0010926D0010926C00FF
S1130DA081E08093770080916100811106C08CED11
S1130DB095E0909366008093650080917500815062
S1130DC08093750037C080917500833089F5C0E049
S1130DD0D1E000E010E00BC00F5F1F4FCE01D9D26D
S1130DE0F801EE0FFF1FEE56FF4F91838083CE0173
S1130DF0D0D222968636910579F710937F0000931E
S1130E007E0010926D0010926C0081E08093770058
S1130E1080916200811106C08CED95E0909368008A
S1130E20809367008091750081508093750002C0A3
S1130E3010927500DF91CF911F910F91089581E079
S1130E4090E090938D0080938C00109277008FE057
S1130E5087BB84E190E099BD88BD88E290E09BBDAA
S1130E608ABDF89412BE85E083BF89B7816089BFCB
S1130E70C19A60DD78940F2EFEE8EF2EF0E0FF2E8D
S1130E80F02D01E010E00F2EF8E9CF2EF02DCEE783
S1130E90D0E0DD24D39401C0E6DD80916B00813085
S1130EA0D9F380919B038130B1F4C09A15DA892B70
S1130EB0E9F3CAB8C09810929B0388819981892B61
S1130EC041F081E23DDD82E03BDD86E639DD86E608
S1130ED037DDD0926B00809177008130F1F6F70115
S1130EE011830083BCD8892BE9F310927700809199
S1130EF07500882349F0FFE72CEF8AE0F150204089
S1130F008040E1F700C0000025DFC7CFCF92DF9219
S1130F10EF92FF920F931F93CF93DF9380916E0014
S1130F20823071F0833021F0813009F0A8C00FC005
S1130F3080917E0090917F00892B09F06EC093C050
S1130F4080917E0090917F00892BA9F55AC08091F1
S1130F507E0090917F00892B09F1EEE9F2E080E0B8
S1130F6090E0CEE7D0E09C012F5F3F4FDF01119767
S1130F704C9150E0542F44276081462BDC01AA0F8A
S1130F80BB1FA656BE4F11965C934E9388819981E0
S1130F9032962817390710F4C901E5CFE0917E0095
S1130FA0F0917F00EE0FFF1FE656FE4F86E690E0BD
S1130FB09183808366C0CEE9D2E00F2EF0E0EF2E5D
S1130FC0F0E0FF2EF02D00E010E00F2EFEE7CF2E14
S1130FD0F0E0DF2EF02D0F5F1F4FFE01319760818F
S1130FE070E0762F66278881682BC701D7D1F60178
S1130FF0808191812296F2E0EF0EF11C0817190707
S113100050F380917E0090917F00880F991F66E6CF
S113101070E080509040C2D134C0CEE9D2E00F2EAF
S1131020F0E0EF2EF1E0FF2EF02D00E010E00F2EA7
S1131030FEE7CF2EF0E0DF2EF02D0F5F1F4FFE01F5
S11310403197608170E0762F66278881682BC7010D
S1131050A5D1F601808191812296F2E0EF0EF11C78
S11310600817190750F380917E0090917F00880F34
S1131070991F66E670E080509F4F90D102C0109295
S11310806E00DF91CF911F910F91FF90EF90DF9051
S1131090CF900895EF92FF920F931F93CF93DF9316
S11310A080919B0290919C02813A09F06CC091114D
S11310B065C08091880090918900019751F581E283
S11310C03FDC80917E0090917F00892BE9F0C0E0A5
S11310D0D0E00F2EFEE7EF2EF0E0FF2EF02D8E0174
S11310E0000F111F0E561F4FF80180819181892F27
S11310F027DCF8018081918123DC2196F70180812E
S11311009181C817D90758F386E61ADC86E618DCFD
S1131110E5C08091980190919901019709F0DEC092
S113112081E20EDC80917E0090917F00892BE9F0B2
S1131130C0E0D0E00F2EFEE7EF2EF0E0FF2EF02D02
S11311408E01000F111F0E561F4FF80180819181EF
S1131150892FF6DBF80180819181F2DB2196F7017A
S113116080819181C817D90758F386E6E9DB86E6C2
S1131170E7DB1092990110929801B0C0923009F007
S1131180ADC0E2DBABC0813209F05EC0911153C047
S113119080916E008823A9F010926B0080916C00FE
S11311A090916D0096958795029790937F00809318
S11311B07E00ACDE10926E0010926D0010926C00F6
S11311C08DC010926B0080916C0090916D0096958B
S11311D087950297EEE7F0E0918380838081918187
S11311E0892B09F1EEE9F2E080E090E0CEE7D0E06F
S11311F09C012F5F3F4FDF0111974C9150E0542F1A
S113120044276081462BDC01AA0FBB1FAE56BF4F9B
S113121011965C934E9388819981329628173907E9
S113122010F4C901E5CF10926D0010926C0081E0BA
S11312308093770053C0913009F050C010926B0036
S113124081E080939B034AC0823109F047C0911129
S11312501BC01092740010927300109272001092CE
S1131260710080919D0290E0982F882720919E0222
S1131270822B009711F413BE31C025E023BF909355
S11312806A00809369002AC0913041F580919D02E3
S113129090E0982F882720919E02822B90937000D3
S11312A080936F004091A102842F90E00197FC018C
S11312B0EE0FFF1FED59FF4F20919F0230E0322FB8
S11312C022275091A002252B31832083FC01E05A70
S11312D0FF4F2091A202208340936E00DF91CF91B3
S11312E01F910F91FF90EF9008951F920F920FB6E8
S11312F00F9211242F933F934F935F936F937F9398
S11313008F939F93AF93BF93EF93FF9320917600B6
S1131310822F90E03CB1FC01E556FD4F3083363618
S1131320F1F42223C1F0FC01E656FD4F808186369C
S113133091F4822F90E090936D0080936C00109252
S11313407600109272001092710010927400109244
S11313507300A0DE07C02F5F2093760003C02F5FC9
S113136020937600809176008F3F11F410927600DE
S1131370FF91EF91BF91AF919F918F917F916F9169
S11313805F914F913F912F910F900FBE0F901F903F
S11313901895A8E1B0E042E050E005C012D0272F34
S11313A011C0DC01CB01FC01E199FECF06C0FFBBFB
S11313B0EEBBE09A31960DB20D9241505040B8F711
S11313C00895262FE199FECF9FBB8EBB2DBB0FB690
S11313D0F894E29AE19A0FBE01960895F894FFCF2B
S10F13E0020202DC05DC05DC05A00501AE
S9030000FC
